:100000006F00B01600000000BC0400007004000087
:1000100000000000000000000000000000000000E0
:1000200000000000000000000000000000000000D0
:1000300070040000000000007004000000000000D8
:1000400070040000700400007004000070040000E0
:1000500070040000700400007004000070040000D0
:1000600070040000700400007004000070040000C0
:1000700070040000700400007004000070040000B0
:10008000700400007004000070040000B606000058
:100090007004000070040000700400000000000004
:1000A000634E050263C305042E86AA857D5515C2DD
:1000B00085466378B6006356C00006068606E36C84
:1000C000B6FE014563E4C500918D558D858205829C
:1000D000F5FA82808682C93F2E8582823305A04050
:1000E0006347B000B305B040C1B7B305B0408682E6
:1000F000653F3305A0408282868263C7050063495D
:1001000005005D372E858282B305B040E35B05FEB6
:100110003305A040513F3305B04082820000B7074D
:1001200000E083A7470F8280370700E08327470F4F
:10013000211106CA22C826C693F7070C9306000CA5
:10014000638AD70A02C42E84F1E18327470F89C747
:1001500093F7070891E3E137D24022854244B24445
:1001600061018280B30794401D476353F7009D47A8
:10017000370710000507370600E08326460F930572
:10018000460F13F306086311030691C62AC23EC048
:1001900079371245824734000D47B685634EF70420
:1001A000A246370700E00D46232CD70EB306950074
:1001B000014783C2060005073383E500230053008F
:1001C0006385E7008506E316C7FE138747001367BC
:1001D00007F82304E100A246370700E0BE94232A73
:1001E000D70EE3C184F88DBF7D1741FB9C4193E797
:1001F000070C9CC101448DB73386E4002A96034660
:10020000060005078506A38FC6FE49BF8144D1BFFE
:100210008947630AF5028D47630BF5028547630042
:10022000F502B7070040CCDB370700408357470192
:10023000C207C18393E71700231AF7008280B7072C
:1002400000408CDFD5B7B7070040CCDFF1BFB70760
:100250000040ACC3D1BF011106CE22CC26CA02C0D9
:100260002A836357050089E685473303A0403EC0D3
:100270001304100619C213041004BA8459141A8501
:100280003AC81AC22EC61AC4B135A5472243B24590
:1002900042479376F50F63E1A7069386060393F62C
:1002A000F60F938714002380D4001A853AC83EC6FF
:1002B0002EC4DD3B9246A245B24742472A8363FBE8
:1002C000B602824699C69306D0022380D700938750
:1002D00024003385E7409356F501AA962380070052
:1002E00085860146FD17634BD600F2406244D24436
:1002F00005618280BE8461B7A29655B7B305C70079
:1003000083C2070003C30500050623805500238030
:100310006700C9BFB7F700E09C4737F700E03E959C
:100320001C47898FE3CE07FE8280370700E08327D2
:10033000470F93F70708E5FFB727307893878708BB
:10034000232AF70E370600E071472543F15583272E
:10035000460F93F70708E5FFB357E50093F6F7005C
:10036000930700036354D30093077005B697A20761
:1003700093E75708232AF60E7117E31AB7FC828019
:100380000143ADC263D4B600B68505438D8EBA87EE
:10039000B303D700B382F3406348500463D306002D
:1003A0008146BA9681473386F5406343C00463D3E0
:1003B00005008145B6953385E54063040302637209
:1003C000B7029307A002A38FF5FE9386F5FF637A29
:1003D000D700238FF5FE9386E5FF6374D700A38EC5
:1003E000F5FE8280AE865DB78507A38FC7FE5DB739
:1003F0003306F500834206003386F60085072300A6
:10040000560055B7511122C206C42E84313BA2407A
:100410002285124431018280B7270240054798C3E4
:10042000B71702403707080123A207001307170870
:1004300098C337079F0098C7371702401C4393960D
:100440006700E3DD06FE5C43B7160240F19B93E7CD
:1004500027005CC32147DC42B18BE39EE7FEB70770
:1004600000E023AC070E1307000823AAE70E8280E2
:10047000732510345D3D73250030453D73253034C0
:100480006D35732520345535370700E08327470F36
:1004900093F70708E5FF8567938757A8232AF70E88
:1004A000370700E08327470F93F70708E5FFB7B743
:1004B000AAAA938737A8232AF70E01A0371702406C
:1004C0001C47B7068000D58F1CC7AA8703C7070043
:1004D00001E73385A74082808507CDBF130141FA2C
:1004E000A6C886CCA2CA2AC02EC2B284B68702C8C9
:1004F00003C7040013841400A30FE10001EBE640DE
:1005000056444245C6441301C105828093065002F9
:10051000630FD7003EC41246824785451305F1019B
:100520008297A284C247AA973EC8A247D1B783C682
:1005300014001306000313872400A30FD100130433
:1005400000036390C608BA8401460147254511A8F7
:10055000931627008504369783C6F4FF06072E9767
:100560000546938506FD13F3F50FE37365FE19C287
:10057000A30FD1003AC661466353E60032C6930525
:10058000C00601466398B60083C60400054685048C
:10059000A30FD1008346F101930540066383B6069D
:1005A00063E4D502130780056380E60A130730066B
:1005B000638DE60AA9D612463EC485451305F101AE
:1005C000BDA01304000241B793055007638BB60228
:1005D00013068007638AC60613063007E39DC6FC30
:1005E0003ACC138747009C433AC43E853ECAF13D4E
:1005F0006247D247AA8559C7B246381822863E8537
:100600001DA0138747003AC415C69386B6F8181084
:1006100093B6160088430146A9453539B2463818C5
:100620002286AA850810A93B1246AA852818824767
:100630008297CDBD130750076395E60018108546D5
:10064000D1BF18108146F9B7884313874700138636
:1006500086FA3AC48546181013361600C145E53EA1
:10066000B246AA853818228675BF138747009C4377
:100670003AC4B246A30FF100381822868545130507
:10068000F10155B712463E855DB7511106C422C22D
:1006900026C0AA841D3D2A84AA8526857134056555
:1006A00085451305C59D4934A24013051400124425
:1006B000824431018280130141FD22CC3734014054
:1006C0003EC0835704C106D416D21AD01ECE2ACA01
:1006D0002EC832C636C43AC2858B85C3056513055C
:1006E000059E130404C0553783570401C207C18314
:1006F000F99BC207C1832318F4006244A2509252AE
:100700000253F2435245C2453246A246124782473F
:100710001301C102730020301301C1FD32CA2A86C1
:100720002EC836CC814514081305404006C63ACE83
:100730003ED036C06533B240130141028280511170
:1007400006C422C226C0C939B7444900138504E053
:10075000D13605651305C59EC1370565130505A18D
:10076000653F371402401C4CB70610FFFD1693E797
:1007700017031CCC5C4C05669305069093E71700A5
:100780005CCCB717014098430565130585A2758FAA
:1007900098C39843B7069000558F98C394437D77CC
:1007A0001307F70FF98E94C39443CD8E94C383A699
:1007B0000740758F23A0E74003A707404D8F23A074
:1007C000E74098431377F7F098C3984313670709F6
:1007D00098C31C48096793E717001CC81C48F99B7D
:1007E0001CC8B7070040239407022396E70203D7EB
:1007F00087014207418313678706239CE70083D65E
:1008000087011D6793050780C206C182CD8EC2068F
:10081000C182239CD70083D6C701C206C18293E65A
:100820008606239ED70003D7C7018566420741830A
:100830004D8F42074183239EE70003D707004207FD
:100840004183136707082390E70003D70702420795
:100850004183136717002390E70203D7070242077B
:100860004183136707012390E70203D7070242077A
:100870004183136707102390E70203D7070242075B
:100880004183558F2390E70203D7470142074183F5
:1008900013671700239AE70003D707004207418335
:1008A000136717002390E700370701405C4393E785
:1008B00007105CC395351C4C0566130606805D8EDB
:1008C00010CC37370140835607C0138504E0C206B9
:1008D000C1822310D7C0930600022312D7C093060B
:1008E000803E2316D7C2930600032314D7C22318D1
:1008F00007C28546231AD7C0F9562318D7C0835696
:10090000C7C0C206C18293E616002316D7C083571C
:1009100007C0C207C18393E717002310F7C0B7E7EA
:1009200000E0214723A2E710F53285450145CD308F
:1009300085450545F138B1450945D938B1450D45DD
:10094000C1383774DC02130504C0E932B1450145F2
:10095000C130B14505456D388545094555380D45CA
:1009600085457D30130504C0C1B7970100209381F0
:1009700021A91381414009651305058873100530CD
:100980008D4617F5FFFF1305E567558D731055303C
:10099000138541C0938541C001466356B50010C11F
:1009A0001105E34EB5FE170500001305A508938554
:1009B00041C0138641C06388C500144194C111052C
:1009C0009105E39AC5FEB7F700E0154798C3930772
:1009D000E073739017347300203000000A000000A9
:1009E000696E746572727570746564000D0D0A0A23
:1009F00074696D325F70776D206578616D706C65BC
:100A00002C20776974682072656D61700A0D000092
:100A1000696E697469616C697A696E672074696D61
:100A2000322E2E2E00000000646F6E652E0A0D001F
:00000001FF
