:100000006F00207D0000000002040000E4030000F7
:1000100000000000000000000000000000000000E0
:1000200000000000000000000000000000000000D0
:10003000E403000000000000E403000000000000F2
:10004000E4030000E4030000E4030000E403000014
:10005000E4030000E4030000E4030000E403000004
:10006000E4030000E4030000E4030000E4030000F4
:10007000E4030000E4030000E4030000E4030000E4
:10008000E4030000E4030000E4030000E4030000D4
:10009000E4030000E4030000E403000000000000AB
:1000A000634E050263C305042E86AA857D5515C2DD
:1000B00085466378B6006356C00006068606E36C84
:1000C000B6FE014563E4C500918D558D858205829C
:1000D000F5FA82808682C93F2E8582823305A04050
:1000E0006347B000B305B040C1B7B305B0408682E6
:1000F000653F3305A0408282868263C7050063495D
:1001000005005D372E858282B305B040E35B05FEB6
:100110003305A040513F3305B040828200002A875A
:1001200081472E853746014063C3A700828083261E
:10013000068093F60604E5DEB306F70083C60600E4
:1001400085072322D680CDB7B727014023AAA7422F
:10015000B7F700E098478967938707583E97B7F647
:1001600000E09C46998FE3CE07FEB727014003A726
:100170008740B7064000558F23A4E740372701404A
:1001800083270740898BEDDF0325C7444205418162
:100190008280011106CE22CC26CA02C02A83635770
:1001A000050089E685473303A0403EC013041006CE
:1001B00019C213041004BA8459141A853AC81AC211
:1001C0002EC61AC4013FA5472243B2454247937643
:1001D000F50F63E1A7069386060393F6F60F938760
:1001E00014002380D4001A853AC83EC62EC46D3D43
:1001F0009246A245B24742472A8363FBB602824633
:1002000099C69306D0022380D700938724003385B4
:10021000E7409356F501AA9623800700858601469C
:10022000FD17634BD600F2406244D24405618280E0
:10023000BE8461B7A29655B7B305C70083C2070055
:1002400003C3050005062380550023806700C9BF4E
:100250000143ADC263D4B600B68505438D8EBA871F
:10026000B303D700B382F3406348500463D306005E
:100270008146BA9681473386F5406343C00463D311
:1002800005008145B6953385E5406304030263723A
:10029000B7029307A002A38FF5FE9386F5FF637A5A
:1002A000D700238FF5FE9386E5FF6374D700A38EF6
:1002B000F5FE8280AE865DB78507A38FC7FE5DB76A
:1002C0003306F500834206003386F60085072300D7
:1002D000560055B7511122C206C42E848935A2405A
:1002E0002285124431018280B7270240054798C316
:1002F000B71702403707080123A2070013071708A2
:1003000098C337079F0098C7371702401C4393963E
:100310006700E3DD06FE5C432146F19B93E727007F
:100320005CC3B7170240D843318BE31EC7FE984F1A
:10033000916693860602558F98CFB717014003A7A1
:100340000740B70610FFFD16758F23A0E74003A7EF
:100350000740B7069000558F23A0E740B7470140FC
:1003600023A6C78023A8078023AA07801307101A93
:1003700023A4E78003A7C7808966558F23A6E7805B
:100380008280374701408327078093F70704E5DF22
:100390001375F50F2322A78005458280511126C0D1
:1003A000AA841305000206C422C2E13F130500031C
:1003B000C93F13058007F1377144B3D78400BD8B63
:1003C0002547130500036354F700130570053E9598
:1003D0004D3F7114F157E312F4FEA24012448244DF
:1003E0003101828073251034553F732500307D37ED
:1003F000732530346537732520344D3729455137FF
:1004000001A0371702401C47B7068000D58F1CC7D4
:10041000AA8703C7070001E73385A74082808507C5
:10042000CDBF130141FAA6C886CCA2CA2AC02EC2EB
:10043000B284B68702C803C7040013841400A30F54
:10044000E10001EBE64056444245C6441301C105B4
:10045000828093065002630FD7003EC41246824743
:1004600085451305F1018297A284C247AA973EC829
:10047000A247D1B783C614001306000313872400D4
:10048000A30FD100130400036390C608BA84014689
:100490000147254511A8931627008504369783C682
:1004A000F4FF06072E970546938506FD13F3F50F17
:1004B000E37365FE19C2A30FD1003AC661466353C8
:1004C000E60032C69305C00601466398B60083C6AF
:1004D000040005468504A30FD1008346F10193056E
:1004E00040066383B60663E4D50213078005638084
:1004F000E60A13073006638DE60AA9D612463EC403
:1005000085451305F101BDA01304000241B7930511
:100510005007638BB60213068007638AC60613066C
:100520003007E39DC6FC3ACC138747009C433AC48E
:100530003E853ECAF13D6247D247AA8559C7B246B9
:10054000381822863E851DA0138747003AC415C679
:100550009386B6F8181093B6160088430146A9454D
:100560000D39B24638182286AA850810D5311246B0
:10057000AA85281882478297CDBD13075007639537
:10058000E60018108546D1BF18108146F9B7884398
:1005900013874700138686FA3AC485461810133627
:1005A0001600C145FD36B246AA853818228675BFA9
:1005B000138747009C433AC4B246A30FF100381892
:1005C000228685451305F10155B712463E855DB774
:1005D0001301C1FD32CA2A862EC836CC81451408C3
:1005E0001305402D06C63ACE3ED036C01D3DB24062
:1005F000130141028280511106C422C226C0ED318E
:10060000B7170240984FC1769386F67F13670702AB
:1006100098CF984F1367070198CFD843758FD8C3E9
:10062000984FB7060040FD161367072098CFD847AC
:1006300013670720D8C7D8471377F7DFD8C7B7277E
:10064000014003A7074123A8074003A70741938759
:100650000740558F98CBD84723A60700D847B70641
:100660000400FD16558FD8C79847B7060E00558F62
:1006700098C723A6070223A8070223AA07029847C0
:10068000B72601401367170098C79847136787007C
:1006900098C703A78640218B6DFF03A78640136789
:1006A000470023A4E6403727014083278740918BEA
:1006B000EDFFB71701409843C576FD16758F98C3B7
:1006C00094430567B7050010D98E94C39043938671
:1006D000F5FF13070780758E90C39443370600F12A
:1006E0007D16CD8E94C39443F18E94C39443370604
:1006F0000001D18E94C383A607407D761306F60FC2
:10070000F18E23A0D74083A60740558F23A0E74052
:10071000114723A8E7409843B706F1FFFD16758FF0
:1007200098C39843B7060800558F98C3414798CBA4
:100730003717014083278740898393C7F7FF858B4D
:100740002382F1C0138441C095C383C751C099EF80
:10075000938661C083C7060093C717002380F60005
:10076000B1CFA1471CCB930700081CCB1145E93A38
:100770009307301F63EAA70483C761C0B1C7B717E7
:1007800001401307000498CB1D457D3AAA850565F5
:1007900013054584353DB7F700E09847B7A7240017
:1007A000938707F03E97B7F600E09C46998FE3CE1B
:1007B00007FE83470400A382F1C09DBFB70708006E
:1007C0001CCBB707800055B7B7170140370740006B
:1007D0005DBF970100209381A1C21381414009654B
:1007E00013050588731005308D46170500001305A5
:1007F0006581558D73105530138541C0938581C037
:1008000001466356B50010C11105E34EB5FE17054C
:1008100000001305A504938541C0138641C0638879
:10082000C500144194C111059105E39AC5FEB7F7BF
:1008300000E0154798C39307605F73901734730007
:100840002030000043757272656E742076616C759D
:08085000653A2025750A00003D
:00000001FF
